S00D00004C43445F542E7372656391
S11300000C9425020C9442020C9442020C94420279
S11300100C9442020C9442020C9442020C9442024C
S11300200C9442020C9442020C9442020C9442023C
S11300300C9442020C9442020C9442020C9442022C
S11300400C94EC0C0C9442020C9442020C94420268
S11300500C9442020C9442020C9442020C9442020C
S11300600C9429060C944202060523053305540515
S113007070058605A705CA05E0050306450694062E
S113008094069406940694069406940645069406EB
S113009094069406940694069406940647069406D9
S11300A0940694069406940694069406940694067C
S11300B094069406940694069406940647069406B9
S11300C0940694069406940694069406940694065C
S11300D09406940694069406940694069006940650
S11300E09406940694069406940694066F06940661
S11300F0940694069406940694069406940694062C
S1130100940694069406940694069406630694064C
S113011094069406940694069406940681060000B8
S113012000000000005F00000007000700147F14B7
S11301307F14242A7F2A124C2C10686436495522D5
S1130140500005030000001C2241000041221C0055
S113015014083E081408083E080800005030001037
S113016010101010006060000020100804023E51BE
S113017049453E00427F4000426151494621414584
S11301804B311814127F1027454545393C4A4949DB
S11301903001710905033649494936064949291E82
S11301A000363600000056360000081422410014C0
S11301B0141414140041221408020151090632498E
S11301C079413E7E1111117E7F494949363E4141B4
S11301D041227F4141221C7F494949417F09090944
S11301E0013E4149497A7F0808087F00417F410068
S11301F02040413F017F081422417F404040407F1E
S1130200020C027F7F0408107F3E4141413E7F097A
S11302100909063E4151215E7F091929464649498B
S1130220493101017F01013F4040403F1F204020F0
S11302301F3F4038403F63140814630708700807E1
S11302406151494543007F414100020408102000E8
S113025041417F000402010204404040404000014B
S113026002040020545454787F48444438384444A9
S11302704420384444487F3854545418087E0901B3
S1130280020C5252523E7F0804047800447D400020
S11302902040443D007F1028440000417F40007C02
S11302A0041804787C0804047838444444387C14E2
S11302B0141408081414187C7C08040408485454C2
S11302C05420043F4440203C4040207C1C204020DB
S11302D01C3C4030403C44281028440C5050503CB6
S11302E04464544C44000836410000007F00000080
S11302F0413608000804081008FFFFFFFFFF7C12C6
S113030011127C7F494949317F494949367F0101AE
S11303100101603F213F607F4949494177087F08D7
S11303207722414949367F1008047F7E1009047EF4
S11303307F08142241403E01017F7F020C027F7F2F
S11303400808087F3E4141413E7F0101017F7F094A
S11303500909063E4141412201017F010107484844
S1130360483F0E117F110E63140814633F20203F91
S113037060070808087F7F407E407F3F203F207F42
S1130380017F4848307F4830007F007F4848302252
S11303904149493E7F083E413E462919097F205480
S11303A05454783C4A4A4A317C545428007C04040E
S11303B00C00603C243C6038545454186C107C107D
S11303C06C00445454287C2010087C7C2112097C45
S11303D07C10284400403804047C7C0810087C7C91
S11303E01010107C38444444387C0404047C7C148D
S11303F0141408384444440004047C04040C50508D
S1130400503C08147C140844281028443C20203C08
S1130410600C1010107C7C407C407C3C203C207C98
S1130420047C5050207C5020007C007C50502028BC
S1130430445454387C10384438485434147CCFF035
S1130440FBE2E5F221002B002D0011241FBECFEFAB
S1130450D8E0DEBFCDBF11E0A0E0B1E0E0E3F0E220
S113046002C005900D92AE35B107D9F723E0AEE591
S1130470B1E001C01D92A63CB207E1F70E947B07E0
S11304800C9416100C940000289891E0613009F047
S113049090E090FD5F9A90FF5F9828E030E0982FFD
S11304A0991F9927991F90FD5E9A90FF5E985D9A17
S11304B05D98880F2150310991F7289A089560E0DA
S11304C084E20E944402089560E080E20E944402B3
S11304D0089588EF91E0E5E6F1E0DF019C011D92CB
S11304E021503040E1F7109264011092630187EFCC
S11304F091E0909362018093610181E080935E01B9
S113050008950F931F93CF93DF938091630190918C
S1130510640199232CF4109264011092630109C0C0
S1130520883F914034F087EF91E090936401809389
S11305306301809161019091620199232CF41092DE
S113054062011092610109C0883F914034F087EF45
S113055091E09093620180936101C0916301D09115
S11305606401CE0164E570E00E94150D162F60E071
S113057080680E94440260E0812F80640E944402EB
S113058080916101909162018C179D078CF08E011E
S11305900B591E4F61E0F80181918F010E944402C2
S11305A0219680916101909162018C179D0794F7C7
S11305B087EF91E09093640180936301109262014C
S11305C01092610110925E01DF91CF911F910F9102
S11305D00895299A579A209A219A569A559A2998B1
S11305E0299A289A60E081E20E94440260E088EC43
S11305F00E94440260E086E00E94440260E083E1DD
S11306000E94440260E080E20E94440260E08CE0C8
S11306100E9444020E9469020E94810208958E3061
S1130620A8F46630A8F490E09C01220F331F820FD7
S1130630931F880F991F24E5629F800D911D11243B
S11306409093600180935F0180E0089581E00895B4
S113065081E008950F931F93CF93DF9340915F013F
S11306605091600120916301309164014217530756
S113067024F45093640140936301E0EEE60FE03606
S113068008F4A1C0603C08F49DC0E0EAE60F9BC0FA
S11306908491880F8D933196A217B307C9F74B5FE6
S11306A05F4F5093600140935F0166C0823009F050
S11306B063C0CA018455910920916301309164019A
S11306C0821793070CF097C09093640180936301A1
S11306D092C09491990F892F8470282F220F820F32
S11306E0282F220F220F892F8270382F330F830F68
S11306F0880F822BC92FC870C09FC02D11241C2FB6
S1130700182B92959F70892F8170382F330F830F88
S1130710392F3270232F220F320F330F832B292FBF
S11307202470322F330F230F220F220F822B292FF5
S11307302870209F202D1124982F922B9D01215049
S11307403109E90118831C932C5A3F4FE90198831E
S11307502F5F3F4FE901988331961296A617B7078A
S113076009F0B7CFCA010B9668EF71E00E94150D2E
S11307709093600180935F0180915F01909160018B
S113078020916101309162012817390724F4909374
S1130790620180936101FC01EB59FE4F1082873F97
S11307A0D1E09D0731F41092600110925F0182E064
S11307B036C001969093600180935F0180E02FC062
S11307C081E02DC0EFE5813009F070CF40915F01E9
S11307D050916001F0E0CF01880F991F880F991F95
S11307E0E80FF91FE25EFE4FDA01AB59BE4F9A01E2
S11307F026593E4F4DCF99231CF3F0E0CF01880FCB
S1130800991F880F991FE80FF91FE25EFE4FDA0166
S1130810AE5EBE4FBA01645E7E4F08E15ACFDF91EF
S1130820CF911F910F9108950F931F93CF93DF934F
S1130830FB016081662389F08F01D82FC0E08D2FE2
S11308400E942A03813041F0CF5FF801EC0FF11DC3
S113085060816111F4CF01C061E0862FDF91CF91F7
S11308601F910F9108951F93CF93DF93182FEB01DE
S1130870FB016491662361F0812F0E942A03813079
S113088049F02196FE0164916111F6CF80E003C026
S113089080E001C081E0DF91CF911F9108958435FC
S11308A008F052C0603308F051C0262F26952695D3
S11308B0269590E034E5239F800D911D1124220F8D
S11308C0220F220F621BFC01EB59FE4F20814111C4
S11308D00AC041E050E002C0440F551F6A95E2F798
S11308E04095242315C0413049F441E050E002C052
S11308F0440F551F6A95E2F7242B0AC0423041F495
S113090041E050E002C0440F551F6A95E2F72427E6
S1130910FC01EB59FE4F2083209163013091640167
S11309208217930724F490936401809363012091C8
S11309306101309162012817390754F490936201E0
S11309408093610180E0089581E0089581E0089535
S113095080E00895BF92CF92DF92EF92FF920F93BF
S11309601F93CF93DF93843568F5603368F564177C
S1130970C0F0D62FD41BDF5F6D17A0F41EC0C12FAB
S1130980402F6D2F8C2F0E944F0481111EC0CF5F0A
S11309902C2F30E02E153F059CF3DF5FBD1648F485
S11309A00CC0D0E0B62EC82ED12C7601E20EF11C7C
S11309B0182FCE14DF041CF3F0CF81E080935E0186
S11309C080E003C081E001C081E0DF91CF911F91FD
S11309D00F91FF90EF90DF90CF90BF9008950F9309
S11309E0CF93DF93613021F0623021F4CCE303C074
S11309F0C3E201C0CEE0482F50E04A30510508F070
S1130A0024C1FA01EC5CFF4F0C94290DD4E0DC0FF7
S1130A1001E029E044E063E08D2F0E94AA0429E06C
S1130A2044E06FE18D2F0E94AA0424E040E26FE1CC
S1130A308DE08C0F0E94AA0424E040E26FE18C2F29
S1130A400E94AA0402C101E024E044E063E08AE0D9
S1130A508C0F0E94AA0424E040E26FE18DE08C0F29
S1130A600E94AA04F2C001E021E144E063E08C2F7B
S1130A700E94AA0421E144E061E18C2F0E94AA04AF
S1130A8021E144E06FE18C2F0E94AA0424E04AE0B3
S1130A906DE08DE08C0F0E94AA0424E04AE06BE133
S1130AA08C2F0E94AA04D1C001E021E144E063E05C
S1130AB08C2F0E94AA0429E044E061E184E08C0FB9
S1130AC00E94AA0421E144E06FE18C2F0E94AA0451
S1130AD024E048E16BE18DE08C0F0E94AA04B5C0CC
S1130AE001E029E044E061E184E08C0F0E94AA0463
S1130AF024E042E161E18C2F0E94AA0424E040E258
S1130B006FE18DE08C0F0E94AA049FC001E021E1F7
S1130B1044E063E08C2F0E94AA0421E144E061E1F7
S1130B208C2F0E94AA0421E144E06FE18C2F0E94E3
S1130B30AA0424E04AE06BE18DE08C0F0E94AA0431
S1130B4024E04AE06DE08C2F0E94AA047EC0D4E029
S1130B50DC0F01E02DE044E063E08D2F0E94AA0445
S1130B602DE044E061E18D2F0E94AA042DE044E0D1
S1130B706FE18D2F0E94AA0424E04AE06BE18DE02E
S1130B808C0F0E94AA0424E040E26FE18C2F0E94A3
S1130B90AA045BC001E029E044E063E084E08C0F38
S1130BA00E94AA0424E040E26FE18DE08C0F0E94D1
S1130BB0AA0424E048E067E08C2F0E94AA0445C000
S1130BC0D4E0DC0F01E029E044E063E08D2F0E94D3
S1130BD0AA0429E044E061E18D2F0E94AA0429E0DF
S1130BE044E06FE18D2F0E94AA0424E040E26FE10B
S1130BF08DE08C0F0E94AA0424E040E26FE18C2F68
S1130C000E94AA0422C0D4E0DC0F01E029E044E001
S1130C1063E08D2F0E94AA0429E044E061E18D2F56
S1130C200E94AA042DE044E06FE18C2F0E94AA04E4
S1130C3024E040E26FE18DE08C0F0E94AA0424E0DE
S1130C4042E161E18C2F0E94AA04DF91CF910F91C0
S1130C5008951F920F920FB60F9211242F933F9372
S1130C608F939F93AF93BF93EF93FF932091B9001A
S1130C702C7F822F90E0FC013897E135F10508F0D4
S1130C8053C0E25CFF4F0C94290D10925D03E09178
S1130C905D0380915E03E81778F4F0E0E15AFC4FBD
S1130CA080818093BB0085E88093BC0080915D03C4
S1130CB08F5F80935D033DC08FEF8093000184E9D3
S1130CC08093BC0036C080915D03E82FF0E09091E2
S1130CD0BB00E15AFC4F90838F5F80935D0380914A
S1130CE05E0320915D0330E090E0019728173907F7
S1130CF024F485EC8093BC001CC085E88093BC0080
S1130D0018C0E0915D03F0E08091BB00E15AFC4F14
S1130D1080838FEF8093000184E98093BC0009C035
S1130D2085EA8093BC0005C02093000184E0809391
S1130D30BC00FF91EF91BF91AF919F918F913F9133
S1130D402F910F900FBE0F901F90189582EE8093F5
S1130D507C0082E880937A000895CF93DF9382E643
S1130D6080937C0086E880937A001092830310922B
S1130D70820381E080937303EAE7F0E0CCE7D0E0FC
S1130D8042E4A8E7B0E08081806880834883808162
S1130D9080648083808186FDFDCF8D919C91119725
S1130DA02091820330918303820F931F90938303D6
S1130DB08093820380818F778083809173038F5F18
S1130DC0809373038132F8F220918203309183037C
S1130DD036952795329522952F7023273F70232728
S1130DE0AEE9B1E00E942F0DDC01CB01689415F847
S1130DF0B695A795979587951694D1F780937A031E
S1130E0090937B03A0937C03B0937D035B9A109231
S1130E1085031092840386E880937A0081E08093AE
S1130E207303EAE7F0E0CCE7D0E046E4A8E7B0E0FB
S1130E30808180688083488380818064808380810E
S1130E4086FDFDCF8D919C91119720918403309163
S1130E508503820F931F909385038093840380817D
S1130E608F778083809173038F5F809373038132C4
S1130E70F8F25B9880918403909185039695879509
S1130E80929582958F7089279F708927909381030B
S1130E9080938003DF91CF91089580917D038F9398
S1130EA080917C038F9380917B038F9380917A034D
S1130EB08F93809181038F93809180038F9381E03E
S1130EC091E09F938F9386E893E09F938F930E9482
S1130ED03E0D65E080E00E940F0366E873E081E068
S1130EE00E9414048DB79EB70A960FB6F8949EBF5D
S1130EF00FBE8DBF089580E18AB95C9A80E485BFF6
S1130F000E94A6060E94E9020E94690262E080E053
S1130F100E940F036EE374E082E00E9433040E9497
S1130F20810288E00E94F2090E94950A11E0C0E063
S1130F30D0E0B12CC12C0F2EFEE0EF2EF1E0FF2EFD
S1130F40F02D0F2EF6E86F2EF3E07F2EF02D912C6E
S1130F50A12C8091740390917503A0917603B091B4
S1130F60770381159A4CAA49BB43A0F4809174037A
S1130F7090917503A0917603B09177030196A11D1A
S1130F80B11D8093740390937503A0937603B0937B
S1130F90770308C0109274031092750310927603BD
S1130FA01092770380917E038B3408F441C0109231
S1130FB07E0380917A0390917B03A0917C03B0918E
S1130FC07D03893B9B40A105B10548F00E9469025D
S1130FD00E94AD060E94AF0BC92DDA2D17C02196D1
S1130FE0DF93CF93FF92EF927F926F920E943E0D18
S1130FF062E080E00E940F03B30181E00E941404C8
S11310000F900F900F900F900F900F9080917A0394
S113101090917B03A0917C03B0917D03853398402C
S1131020A105B10528F10E944D070E94810220C04C
S11310308F5F80937E0380917F03883020F48F5FDD
S113104080937F0315C010927F030E94AD060E9417
S11310504D0780917A0390917B03A0917C03B0911A
S11310607D0385339840A105B10510F00E948102EB
S1131070113019F580917A0390917B03A0917C0340
S1131080B0917D0388389341A105B105B0F40E9465
S1131090740A8D3691055CF481E08B1510F0B394DD
S11310A051C00E945F025C9A10E0B12C4BC00E94B8
S11310B05F025C9A10E0B12C45C00E94740A8D3620
S11310C091050CF521E02C1510F0C3943BC08091E0
S11310D07A0390917B03A0917C03B0917D038533C7
S11310E09840A105B10558F180918403909185033E
S11310F08115994110F05C9801C05C9A0E946402C9
S113110011E0C12C1FC080917A0390917B03A091C0
S11311107C03B0917D0385339840A105B10588F027
S113112080918403909185038115994110F05C9816
S113113001C05C9A0E94640211E0C12C03C0C12C5E
S113114001C0C12C83B7816083BF889502CF98E02A
S113115038E1262F282720FD02C0669503C06327A7
S11311606695606886959150A1F7862F0895EF9251
S1131170FF920F931F93CF93DF937C018C01095F40
S11311801F4FEC0160E089910E94A708682FC017E7
S1131190D107C9F781E0F7019781691301C080E0A5
S11311A0DF91CF911F910F91FF90EF9008951F93BE
S11311B0CF93DF93D82F162FC8E0D0FF04C0812F20
S11311C00E94000A03C0812F0E94190AD695C150BB
S11311D0A1F7DF91CF911F9108951F93CF93DF93D0
S11311E0182FD8E0C0E0C695812F0E94310A8111E2
S11311F0C068D150C1F78C2FDF91CF911F91089512
S1131200682F8CEC0E94D7080895FF920F931F93C8
S1131210CF93DF938C01F62E85E50E94D708E80171
S1131220085F1F4F6F2D89910E94D708C017D107FF
S1131230C9F7DF91CF911F910F91FF900895BF924D
S1131240CF92DF92EF92FF920F931F93CF93DF938E
S1131250EC01D62EF42E642F80EF0E94D70811E003
S1131260B12C01E0CC24C3948F2D0E94310AE82EC6
S11312708F2D0E94310AEE20B1F1811130C0988186
S1131280912B988319C02881912F9095922398834C
S113129013C00D1104C08881812B88830DC0D01622
S11312A038F49881812F809589238883B02E04C0D7
S11312B09881912341F003C09881912329F08F2DC7
S11312C00E94000A04C0B02E8F2D0E94190A0F5FDD
S11312D0110F11F421961C2D013431F602C08FEF49
S11312E005C08B2D03C08111CECFD3CFDF91CF9119
S11312F01F910F91FF90EF90DF90CF90BF900895D2
S11313008F929F92AF92BF92CF92DF92EF92FF9211
S11313100F931F93CF93DF938C01942E790166234F
S113132071F0DC0120E088E007C011929150E9F7E8
S11313302F5F1896261719F0FD01982FF6CFC02EAF
S1131340D12EE02FF12FB12CA12C6894882483F89E
S1131350AC2DBD2D882D01900D928A95E1F7892D34
S11313600E944F0A882361F1492D6A2D8C2D9D2DF1
S11313700E941F09A82EB394E80188E0B89EC00D0E
S1131380D11D1124AA2029F0EC2DFD2DCC2EDD2E0B
S1131390DFCFBB20B9F0D0E0C0E0DD24D394C80196
S11313A00E94B708811105C0F70190819F5F908367
S11313B001C0DD2DCF5F085F1F4FCB11F0CF04C0FC
S11313C08FEF03C080E001C08D2FDF91CF911F917B
S11313D00F91FF90EF90DF90CF90BF90AF909F90D0
S11313E08F90089597B18095982397B998B18923E0
S11313F088B98FEB93E00197F1F700C000000895DE
S11314009FB7F89427B1282B27B928B180952823B2
S113141028B92DE02A95F1F7000027B1282327B930
S113142028B1822388B98AEA8A95F1F700C09FBF60
S113143008959FB7F89427B1282B27B928B1809530
S1131440282328B920EA2A95F1F727B1282327B9B8
S113145028B1822388B98AE18A95F1F700C09FBF39
S113146008952FB7F89497B1982B97B938B1982F5E
S11314709095392338B930E13A95F1F737B13923EA
S113148037B938B1932398B998E19A95F1F796B1A1
S113149032E93A95F1F700C02FBF892308952FB799
S11314A0F89497B1982B97B938B1982F9095392320
S11314B038B9EFEBF3E03197F1F700C0000037B132
S11314C0392337B938B1932398B9FAEBFA95F1F780
S11314D000C096B1E3E3F3E03197F1F700C00000F8
S11314E02FBF909589230895E4E9F3E08081218159
S11314F022238CF490E0922B919581959109292FC8
S1131500277040E1249F9001112482958F70282B2D
S113151080E8821B0895277090E1299F900111248F
S113152082958F70822B805808958F929F92AF92EC
S1131530BF92CF92DF92EF92FF920F931F93CF93BC
S1131540DF93CDB7DEB72F970FB6F894DEBF0FBE8B
S1131550CDBF88E00E94F20919829E012F5F3F4FA0
S113156048E065E08EE993E00E94800989818093D8
S113157078030E94690260E080E00E940F03898181
S11315801F928F938AE191E09F938F938E010E5F58
S11315901F4F1F930F930E943E0DB80181E00E94DC
S11315A014040E9481028091780390E001970F90C7
S11315B00F900F900F900F900F900AF471C0882431
S11315C0839400E010E0912C0F2EF9E2AF2EF1E0AD
S11315D0BF2EF02D7E0122E0E20EF11C0F2EF9E366
S11315E0CF2EF1E0DF2EF02D682D80E00E940F0356
S11315F01F930F93BF92AF92FF92EF920E943E0D02
S1131600B70181E00E941404B8016F5F7F4F660F39
S113161080E00E940F03F801EE0FFF1FEE0FFF1F83
S1131620EE0FFF1FE256FC4F80811F928F93818142
S11316301F928F9382811F928F9383811F928F9326
S113164084811F928F9385811F928F9386811F922D
S11316508F93DF92CF92FF92EF920E943E0DB701DB
S113166081E00E9414040E94810293943FE38DE080
S113167093E0315080409040E1F700C00000092D14
S113168010E0809178038394839490E001970FB6DF
S1131690F894DEBF0FBECDBF801791070CF0A4CF26
S11316A088E00E944F0A88E00E94000968E084E410
S11316B00E94D7082F960FB6F894DEBF0FBECDBF99
S11316C0DF91CF911F910F91FF90EF90DF90CF901A
S11316D0BF90AF909F908F9008951F93CF93DF9307
S11316E08091780390E0019762F1C0E0D0E010E0CF
S11316F088E00E944F0ACE01880F991F880F991F16
S1131700880F991F68E082569C4F0E94050968E083
S11317108EEB0E94D70888E00E94ED08CC0FDD1FF5
S1131720CC56DC4F888388E00E94ED0889831F5FD4
S1131730C12FD0E08091780390E001978C179D072A
S1131740BCF688E00E944F0A88E00E94000968E025
S113175084E40E94D708DF91CF911F9108955F928E
S11317606F927F928F929F92AF92BF92CF92DF92AD
S1131770EF92FF920F931F93CF93DF93CDB7DEB712
S113178068970FB6F894DEBF0FBECDBF0E946D0BF5
S11317908091780390E001970AF408C1E12CF12CC0
S11317A0712C0F2EF6E58F2EF1E09F2EF02D6E0199
S11317B02BE0C20ED11C0F2EFAE5AF2EF1E0BF2EA6
S11317C0F02D0F2EFDEC6F2EF02DF701EE0FFF1F05
S11317D0DF01AC56BC4F8C9121E030E02C0F3D1F53
S11317E0E20FF31F808311968C91818388230CF080
S11317F097C090E0982F8827F701EE0FFF1FE20FA4
S1131800F31F2081822B9195819591098083918387
S1131810292F277080E1289F9001112480818295CF
S11318208F70582E522A93E6951508F4ABC001E048
S11318302CE044E061E180E00E94AA040DC001E0D4
S11318402CE044E061E180E00E94AA0424E04CE042
S113185065E184E00E94AA0429E0251508F479C012
S113186061E070E0852D90E00E94EF04F701EE0F37
S1131870FF1FEC56FC4F90819F70192F110F990F89
S1131880990F990F190F01E024E044E06FE186E31A
S11318900E94AA04812F82958F7062E070E090E02C
S11318A00E94EF0431C01F925F929F928F92DF9249
S11318B0CF920E943E0DB60182E00E941404F7010B
S11318C0EE0FFF1FEC56FC4F80818F70182F110F05
S11318D0880F880F880F180F61E088E00E940F03BB
S11318E0812F82958F701F928F93BF92AF92DF9258
S11318F0CF920E943E0DB60182E00E9414040FB6FE
S1131900F894DEBF0FBECDBF7394E72CF12C809109
S1131910780390E001978E159F050CF056CF46C0D2
S1131920877020E1829FC0011124F701EE0FFF1F91
S113193021E030E02C0F3D1FE20FF31F508056943E
S1131940569456945694582A33E6351508F077CFB2
S113195023C0569C012D112406950695069510E08A
S113196060E070E0C8010E94EF0426EF2003C0018C
S1131970219F900D112461E070E0850D911D0E945E
S1131980EF0474CF61E080E00E940F0368E474E028
S113199082E00E94330487CF61E080E00E940F035D
S11319A066E474E082E00E9433047DCF68960FB64B
S11319B0F894DEBF0FBECDBFDF91CF911F910F9181
S11319C0FF90EF90DF90CF90BF90AF909F908F905B
S11319D07F906F905F9008951F920F920FB60F92B1
S11319E011248F93F89481EB86BD809179038F5FE6
S11319F08093790378948F910F900FBE0F901F906E
S1131A001895AA1BBB1B51E107C0AA1FBB1FA61731
S1131A10B70710F0A61BB70B881F991F5A95A9F793
S1131A2080959095BC01CD01089597FB072E16F47F
S1131A30009407D077FD09D00E94010D07FC05D062
S1131A403EF4909581959F4F0895709561957F4FD1
S1131A500895EE0FFF1F0590F491E02D0994A29FC5
S1131A60B001B39FC001A39F700D811D1124911D6E
S1131A70B29F700D811D1124911D0895AEE0B0E058
S1131A80E4E4FDE00C94ED0F0D891E8986E08C835F
S1131A901A8309838FEF9FE79E838D83AE01475E90
S1131AA05F4F6F89788DCE0101960E94610D2F8161
S1131AB03885F801E20FF31F10822E96E4E00C94AF
S1131AC00910ACE0B0E0E7E6FDE00C94DF0F7C0128
S1131AD06B018A01FC0117821682838181FFBDC1DB
S1131AE0CE0101964C01F7019381F60193FD859196
S1131AF093FF81916F01882309F4ABC1853239F4D6
S1131B0093FD859193FF81916F01853229F4B7018B
S1131B1090E00E94490FE7CF512C312C20E0203275
S1131B20A0F48B3269F030F4803259F0833269F4D6
S1131B3020612CC08D3239F0803339F4216026C005
S1131B402260246023C0286021C027FD27C030ED17
S1131B50380F3A3078F426FF06C0FAE05F9E300D65
S1131B601124532E13C08AE0389E300D1124332ED5
S1131B7020620CC08E3221F426FD6BC1206406C0A5
S1131B808C3611F4206802C0883641F4F60193FDC6
S1131B90859193FF81916F018111C1CF982F9F7D12
S1131BA09554933028F40C5F1F4FFFE3F9830DC065
S1131BB0833631F0833771F0833509F05BC022C07E
S1131BC0F801808189830E5F1F4F44244394512C74
S1131BD0540115C03801F2E06F0E711CF801A080A9
S1131BE0B18026FF03C0652D70E002C06FEF7FEF68
S1131BF0C5012C870E943E0F2C0183012C852F7771
S1131C00222E17C03801F2E06F0E711CF801A0807B
S1131C10B18026FF03C0652D70E002C06FEF7FEF37
S1131C20C5012C870E94330F2C012C852068222E9D
S1131C30830123FC1BC0832D90E048165906B0F4A1
S1131C40B70180E290E00E94490F3A94F4CFF50185
S1131C5027FC859127FE81915F01B70190E00E94E6
S1131C60490F31103A94F1E04F1A510841145104CC
S1131C7071F7E5C0843611F0893639F5F80127FF8C
S1131C8007C060817181828193810C5F1F4F08C0FE
S1131C9060817181072E000C880B990B0E5F1F4F1A
S1131CA02F76722E97FF09C0909580957095619557
S1131CB07F4F8F4F9F4F2068722E2AE030E0A4019F
S1131CC00E94810FA82EA81844C0853729F42F7EBE
S1131CD0B22E2AE030E025C0F22FF97FBF2E8F36D6
S1131CE0C1F018F4883579F0B4C0803719F088371A
S1131CF021F0AFC02F2F2061B22EB4FE0DC08B2D6A
S1131D008460B82E09C024FF0AC09F2F9660B92EA4
S1131D1006C028E030E005C020E130E002C020E148
S1131D2032E0F801B7FE07C060817181828193813E
S1131D300C5F1F4F06C06081718180E090E00E5FF0
S1131D401F4FA4010E94810FA82EA818FB2DFF7716
S1131D507F2E76FE0BC0372D3E7FA51450F474FE03
S1131D600AC072FC08C0372D3E7E05C0BA2C372D40
S1131D7003C0BA2C01C0B52C34FF0DC0FE01EA0D1E
S1131D80F11D8081803311F4397E09C032FF06C011
S1131D90B394B39404C0832F867809F0B39433FDCD
S1131DA013C030FF06C05A2CB31418F4530C5B183C
S1131DB0B32CB31468F4B70180E290E03C870E942E
S1131DC0490FB3943C85F5CFB31410F43B1801C00C
S1131DD0312C34FF12C0B70180E390E03C870E94AD
S1131DE0490F3C8532FF17C031FD03C088E790E0FE
S1131DF002C088E590E0B7010CC0832F867859F0C3
S1131E0031FF02C08BE201C080E237FD8DE2B701F1
S1131E1090E00E94490FA51438F4B70180E390E0E4
S1131E200E94490F5A94F7CFAA94F401EA0DF11DC8
S1131E308081B70190E00E94490FA110F5CF3320B3
S1131E4009F451CEB70180E290E00E94490F3A9420
S1131E50F6CFF7018681978102C08FEF9FEF2C9612
S1131E60E2E10C94FB0FFC010590615070400110FD
S1131E70D8F7809590958E0F9F1F0895FC016150AF
S1131E80704001900110D8F7809590958E0F9F1F98
S1131E9008950F931F93CF93DF93FB01238121FDBB
S1131EA003C08FEF9FEF28C022FF16C046815781E1
S1131EB0248135814217530744F4A081B1819D01E7
S1131EC02F5F3F4F318320838C93268137812F5F8F
S1131ED03F4F3783268310C0EB01092F182F00844E
S1131EE0F185E02D0995892BE1F68E819F8101967C
S1131EF09F838E83812F902FDF91CF911F910F911C
S1131F000895FA01AA27283051F1203181F1E8948B
S1131F106F936E7F6E5F7F4F8F4F9F4FAF4FB1E0D8
S1131F203ED0B4E03CD0670F781F891F9A1FA11DD3
S1131F30680F791F8A1F911DA11D6A0F711D811DD4
S1131F40911DA11D20D009F468943F912AE0269F99
S1131F5011243019305D3193DEF6CF010895462FF8
S1131F604770405D4193B3E00FD0C9F7F6CF462FD9
S1131F704F70405D4A3318F0495D31FD4052419342
S1131F8002D0A9F7EACFB4E0A695979587957795FF
S1131F906795BA95C9F700976105710508959B0186
S1131FA0AC010A2E06945795479537952795BA950F
S1131FB0C9F7620F731F841F951FA01D08952F92E8
S1131FC03F924F925F926F927F928F929F92AF92C5
S1131FD0BF92CF92DF92EF92FF920F931F93CF9312
S1131FE0DF93CDB7DEB7CA1BDB0B0FB6F894DEBFA9
S1131FF00FBECDBF09942A88398848885F846E84CF
S11320007D848C849B84AA84B984C884DF80EE8018
S1132010FD800C811B81AA81B981CE0FD11D0FB621
S1132020F894DEBF0FBECDBFED010895F894FFCF45
S1132030F84C3A253475563A253475ECC2005420D0
S11320406661696C3A2025367500CDE0E9E4E5ED7A
S1132050EE20257520E4F22E00524F4D20E4E0F2EC
S1132060F7E8EAE02025753A00252E3258252E326D
S113207058252E3258252E3258252E3258252E32E8
S111208058252E325800253375002E25750084
S9030000FC
