:100000000C9434000C9451000C9451000C94510049
:100010000C9480060C9451000C9451000C945100E7
:100020000C9451000C9451000C9451000C9451000C
:100030000C9451000C9451000C9451000C945100FC
:100040000C946D010C9451000C948F000C94BD0025
:100050000C9451000C94E2010C9451000C9451004A
:100060000C9451000C94510011241FBECFEFD8E026
:10007000DEBFCDBF12E0A0E0B1E0E4EEFAE102C0E5
:1000800005900D92A432B107D9F724E0A4E2B2E0C2
:1000900001C01D92A933B207E1F70E949A090C949E
:1000A000700D0C940000F894EFE6F3E090819091CD
:1000B0006E03A081B0E0A259BD4F8C9380818F5F09
:1000C0008083E1ECF0E0808180628083789480E03E
:1000D00090E00895F89490916C0280916D029817C9
:1000E00071F0E0916C02EF73F0E0E45DFD4F208170
:1000F00030E080916C028F5F80936C0202C02EEF23
:100100003FEF7894C90108959093C5008093C4008F
:1001100088E98093C10086E08093C20008951F9211
:100120000F920FB60F9211242F933F938F939F93AB
:10013000EF93FF932091C60080916D0230916C0285
:1001400090E0831B91098034910561F0E0916D028C
:10015000EF73F0E0E45DFD4F208380916D028F5FCF
:1001600080936D02FF91EF919F918F913F912F911D
:100170000F900FBE0F901F9018951F920F920FB601
:100180000F9211248F939F93EF93FF9390916E039F
:1001900080916F03981306C08091C1008F7D80937A
:1001A000C1000DC0E0916E03F0E0E259FD4F908177
:1001B00080916E038F5F80936E039093C600FF91D2
:1001C000EF919F918F910F900FBE0F901F901895F8
:1001D000609135047091360490E00C944A0ACF93F4
:1001E000DF93EC0102C00E94E80089918111FBCFEE
:1001F000DF91CF9108950F931F93CF93DF931F92B9
:10020000CDB7DEB760E177E20E94EF0964E670E007
:100210000E94EF09082F1AE0862F612F0E94E30940
:10022000805D99830E94E8009981892F805D0E94FA
:10023000E800802F612F0E94E309805D99830E946E
:10024000E8009981892F805D0F90DF91CF911F91F8
:100250000F910C94E800282F220F922F990F990FDD
:10026000920F21E1829FF0011124E059FC4F90830D
:10027000118216828AEA858786878787808B97E036
:100280009383818792838783808714828287958373
:100290008AEA90E09487838708950F931F93CF9302
:1002A000DF93C0E0D0E091E1899F80011124F80143
:1002B000EC0FFD1FE059FC4F808160913504709177
:1002C000360490E00E944A0A2196C131D10579F79F
:1002D000DF91CF911F910F9108951F920F920FB64A
:1002E0000F9211248F93F89483E686BD80912602A5
:1002F0008F5F8093260278948F910F900FBE0F909E
:100300001F90189583E686BDEEE6F0E0808181605F
:10031000808385E085BD0895089587E793E00E9476
:10032000790980912702909128029F938F938CE204
:1003300091E09F938F930E94760A0F900F900F90F9
:100340000F908DE00C94E80087E680937C008FECA2
:1003500080937A00089580917900E9E7F3E0808343
:1003600088EC80937A0080810C94E8000C94AB01B7
:10037000809126028A3048F0109226028091250250
:100380008F5F809325020E94AB01809125028A3005
:1003900080F0109225028091270290912802019608
:1003A0009093280280932702809124028F5F80938C
:1003B0002402809124028A3020F0109224020C94AE
:1003C0008D0108951F920F920FB60F921124109273
:1003D0007A000F900FBE0F901F9018950895089502
:1003E0000895089508950895089508950895089525
:1003F0000895089598E028E1362F382730FD02C08F
:10040000669503C062276695606886959150A1F74E
:10041000862F089598E0282F262720FD03C0769583
:10042000679507C022E0622720E4722776956795DA
:1004300070688695915079F7CB010895EF92FF92FD
:100440000F931F93CF93DF93EC017C0187E0E80EBD
:10045000F11C8E0160E0F80181918F010E94FA0188
:10046000682F0E151F05B9F781E09F81691301C040
:1004700080E0DF91CF911F910F91FF90EF90089551
:10048000EF92FF920F931F93CF93DF93EC017C01C8
:1004900088E0E80EF11C8E0160E0F80181918F0187
:1004A0000E94FA01682F0E151F05B9F781E09885A3
:1004B000691301C080E0DF91CF911F910F91FF90F0
:1004C000EF9008951F93CF93DF93C82F162FD8E096
:1004D000812FC0FF03C00E94B10302C00E94CB0362
:1004E000C695D150A9F7DF91CF911F9108951F9321
:1004F000CF93DF93182FD8E0C0E0C695812F0E94DC
:10050000E5038111C068D150C1F78C2FDF91CF91E5
:100510001F910895682F8CEC0C946202FF920F9348
:100520001F93CF93DF93EC01F62E83E30E946202C8
:100530008E01085F1F4F8F2D0E9477028993C0178D
:10054000D107C9F7DF91CF911F910F91FF900895C7
:10055000FF920F931F93CF93DF93EC01F62E85E567
:100560000E9462028E01085F1F4F6F2D89910E94C9
:100570006202C017D107C9F7DF91CF911F910F9188
:10058000FF900895CF92DF92EF92FF920F931F9307
:10059000CF93DF93EC01D62EF42E642F80EF0E94D0
:1005A000620211E0E12C01E08F2D0E94E503C82ECC
:1005B0008F2D0E94E503CC2019F0882329F02DC04F
:1005C0009881882349F003C08881812B03C0812F43
:1005D0008095892388830FC00D1103C0912B9883C8
:1005E0000AC0D01628F4812F80958923888302C001
:1005F000912309F4E02E8881812321F08F2D0E9420
:10060000B10303C08F2D0E94CB030F5F110F11F4B4
:10061000219611E0013441F602C0EE24EA948E2DB9
:10062000DF91CF911F910F91FF90EF90DF90CF90CE
:1006300008958F929F92BF92CF92DF92EF92FF9296
:100640000F931F93CF93DF931F92CDB7DEB74C016B
:10065000F42E8901FC01379680E08617C9F0DF018E
:1006600017971C92DF0116971C92DF0115971C92B9
:10067000DF0114971C92DF0113971C92DF01129780
:100680001C92DF0111971C9210828F5F3896E5CF84
:100690006401F401E12C60E088E0B82E01C069013A
:1006A000D6018B2D01900D928A95E1F78F2D6983EC
:1006B0000E9405046981882331F14F2DC6010E94F3
:1006C000C202682FE394940188E0E89E200D311D5A
:1006D0001124F6016111E3CF20E0F12C11C0C40117
:1006E00029830E941E022981811105C0F8018081A1
:1006F0008F5F808301C021E0F394F8E08F0E911C9E
:10070000FE10EDCF01C02FEF822F0F90DF91CF9120
:100710001F910F91FF90EF90DF90CF90BF909F902F
:100720008F9008952F3F09F008C020E007C0FB011B
:100730009081981731F0685F7F4F2F5F2417B8F3CF
:100740002FEF822F089597B18095982397B998B18C
:10075000982398B983EA98E00197F1F700C0000068
:1007600008952FB7F89497B1982B97B998B18095C1
:10077000982398B99FE19A95F1F797B1982397B983
:1007800098B1982398B986E291E00197F1F700C0FB
:1007900000002FBF08952FB7F89497B1982B97B901
:1007A00098B18095982398B9E4E1F1E03197F1F799
:1007B000000097B1982397B998B1982398B9FDE3B1
:1007C000FA95F1F700C02FBF08953FB7F89497B19D
:1007D000982B97B998B1282F2095922398B995E234
:1007E0009A95F1F797B1922397B998B1922398B956
:1007F000E7E3EA95F1F7000096B1EDEFF0E031970D
:10080000F1F700003FBF892308953FB7F89497B1EF
:10081000982B97B998B1282F2095922398B9E3EA9D
:10082000F8E03197F1F700C0000097B1922397B933
:1008300098B1922398B9E2E4F1E03197F1F700C062
:1008400096B1E1E6F7E03197F1F700003FBF9095F0
:10085000892308952A988FEF0E940F082A9A0895F5
:10086000EF92FF921F93CF93DF931F92CDB7DEB726
:100870007B012A988F71806249830E940F08182F8C
:100880004981642FC7010E9403082A9A812F0F9083
:10089000DF91CF911F91FF90EF900895EF92FF921B
:1008A0000F931F93CF93DF931F92CDB7DEB77B01DA
:1008B0008A012A9829830E940F082981222369F03E
:1008C0000115110529F4622FC7010E94030805C014
:1008D000422FB801C7010E94F4072A9A0F90DF91B6
:1008E000CF911F910F91FF90EF9008951F93CF9399
:1008F000DF93EB019FEF98832A988F710E940F0876
:10090000182F41E0BE0180E090E00E94F4072A9A8F
:10091000812FDF91CF911F9108950F931F93CF9354
:10092000DF931F92CDB7DEB7182F062FBE016F5F82
:100930007F4F86E00E947604602F660F9981966053
:100940006923112311F0686001C0677F698341E06A
:10095000BE016F5F7F4F86E00E9430040F90DF91F1
:10096000CF911F910F910895BF92CF92DF92EF9296
:10097000FF920F931F93CF93DF931F92CDB7DEB7F4
:10098000D82EFB01B42E811110C0808180931C01F0
:10099000818180931D01828180931E0183818093D8
:1009A0001F0184818093200105C081E08D1510F422
:1009B00041E001C045E0BF018D2D865F0E943004FB
:1009C000BE016F5F7F4F81E00E947604ED2CF12C19
:1009D00001E010E00D2C01C0000F0A94EAF7C02ED0
:1009E0008981802B898341E0BE016F5F7F4F81E069
:1009F0000E943004BB2011F080E201C080E08983B6
:100A000041E0BE016F5F7F4F8D2D8F5E0E943004ED
:100A10008981F701EA5DFE4F8083BE016F5F7F4FE2
:100A200082E00E9476048981BB2019F0C82AC9821D
:100A300003C000950823098341E0BE016F5F7F4F2B
:100A400082E00E9430040F90DF91CF911F910F91AF
:100A5000FF90EF90DF90CF90BF900895CF93DF93FA
:100A60001F92CDB7DEB7BE016F5F7F4F80E00E945F
:100A70007604898180FD13C08160898341E0BE01D5
:100A80006F5F7F4F80E00E9430048BE291E001971E
:100A9000F1F700C08BE291E00197F1F700C00F90F1
:100AA000DF91CF91089581E0809329020895CF933B
:100AB000DF931F92CDB7DEB710922A024198399A80
:100AC000229A389882E08093680081E080936C00DD
:100AD0008FEF95EC0197F1F700C000000E94E90745
:100AE00083E0898341E0BE016F5F7F4F0E94300445
:100AF00085E1898341E0BE016F5F7F4F84E00E9402
:100B000030048EE6898341E0BE016F5F7F4F85E050
:100B10000E94300489E0898341E0BE016F5F7F4F0E
:100B200086E00E9430048FE0898341E0BE016F5F60
:100B30007F4F80E00E94300480E7898341E0BE015E
:100B40006F5F7F4F87E00E94300420E040E050E07C
:100B500060E070E081EE0E944E0420E040E050E052
:100B600060E070E082EE0E944E048FEF93E2019706
:100B7000F1F700C00000419A0F90DF91CF910895E6
:100B8000863010F40C94B4040895FC0180818093A5
:100B900021018181809322018281809323018381BD
:100BA0008093240184818093250145E0BF0180E189
:100BB0000C943004643020F4823010F40C948D04D2
:100BC0000895FF920F931F93CF93DF931F92CDB79A
:100BD000DEB78C01F62E81E080932A024198BE0197
:100BE0006F5F7F4F80E00E947604898180FF13C091
:100BF0008E7F898341E0BE016F5F7F4F80E00E945E
:100C000030048BE291E00197F1F700C08BE291E0B4
:100C10000197F1F700C045E061E271E08AE00E94CF
:100C2000300420E240E050E0B80180EA0E944E0427
:100C3000419AF11007C080912A028111FCCF809166
:100C4000190101C081E00F90DF91CF911F910F91A9
:100C5000FF900895CF93DF93EC0110922A02419800
:100C60000E942A048E70282F30E035952795F901CF
:100C7000EA5DFE4F8081813278F4273079F020815F
:100C8000AE01BE0181E60E944E040E942A048E70CD
:100C90008E3031F083E005C080E003C082E001C007
:100CA00084E0419A10922A02DF91CF910895209119
:100CB0001A0130911B0140E004C020FD4F5F3695C2
:100CC000279521153105C9F72CE92403C00111240A
:100CD000805C994F24E0969587952A95E1F70895D1
:100CE00020E040E050E060E070E081EE0E944E04C1
:100CF00020E040E050E060E070E082EE0C944E04B2
:100D00001F920F920FB60F9211242F933F934F9380
:100D10005F936F937F938F939F93AF93BF93EF9363
:100D2000FF93CF93DF931F92CDB7DEB741980E9418
:100D30002A04898386FF05C091E09093290290934D
:100D4000290285FF25C010922A028091260188235E
:100D500031F045E06CE171E08AE00E9430040E94CD
:100D60002E0580911A0190911B01880F991F909375
:100D70001B0180931A0180911A0190911B018160DF
:100D800090931B0180931A0181E08093190124C084
:100D900084FF22C020E040E050E060E070E081EE9F
:100DA0000E944E0410922A0280912601882331F07D
:100DB00045E06CE171E08AE00E9430040E942E055B
:100DC00080911A0190911B01880F991F90931B012C
:100DD00080931A011092190180E7898341E0BE01D6
:100DE0006F5F7F4F87E00E943004419A0F90DF9140
:100DF000CF91FF91EF91BF91AF919F918F917F9193
:100E00006F915F914F913F912F910F900FBE0F9077
:100E10001F90189507C0EFEFF1E13197F1F700C08F
:100E2000000081508111F7CF0895CF93DF93809117
:100E30002902813009F049C082E893E00E942A0625
:100E40008093810383508230F0F580918203882360
:100E500041F088E591E00E94EF008DE090E00E9473
:100E6000E80080918B03882349F0843519F481E6EA
:100E700091E002C08BE893E00E94EF008BE893E0E2
:100E80009F938F931F9280E88F93C2EAD3E0DF9302
:100E9000CF930E94B90ADF93CF930E94760A86E827
:100EA00093E00E94C50581E08093820360E082E8C0
:100EB00093E00E94E1058DB79EB708960FB6F894AF
:100EC0009EBF0FBE8DBF10922902DF91CF91089572
:100ED0000E94570541E064E171E080E00E94B404A3
:100EE00063E081E00E948D0467E671E082EA93E0AE
:100EF0000E94030A82EA93E09F938F930E94760AEE
:100F00000F900F9008950E94570541E06FE071E047
:100F100080E00E94B40463E081E00E948D0410929E
:100F2000820385E0EFE0F1E0A6E8B3E001900D92E6
:100F30008A95E1F787E38093850367E771E08BE8A3
:100F400093E00E94030A84E191E00E94C50560E0FD
:100F500082E893E00E94E1052FEF8FE995E02150B0
:100F600080409040E1F700C0000008951092820395
:100F700025E0EFE0F1E0A6E8B3E001900D922A95BC
:100F8000E1F7209185032F5F209385039F938F9333
:100F90001F9287E18F938BE893E09F938F930E943A
:100FA000B90A60E082E893E00E94E105809129029D
:100FB0000F900F900F900F900F900F90882341F09B
:100FC00082E893E00E942A06833011F010922902F1
:100FD000089584B1837C84B984B18C6284B980E53E
:100FE0008CBD81E08DBD0895DC01FB0107C08D91B2
:100FF0008EBD0DB407FEFDCF8EB581938E2F861B5F
:101000008417A8F30895FC0105C091919EBD0DB40D
:1010100007FEFDCF9E2F981B9617B8F308958EBD3F
:101020000DB407FEFDCF8EB50895BF92CF92DF922B
:10103000EF92FF920F931F93CF93DF931F92CDB741
:10104000DEB788E00E94A30319829E012F5F3F4F05
:1010500048E061E08BE294E00E941903898180936B
:101060002B021F928F9385E891E09F938F930E94AC
:10107000760A8DE090E00E94E8000F900F900F90AC
:101080000F90B12C04EA11E094EBE92E91E0F92ED7
:101090003CC08AE991E00E94EF001F92BF921F932B
:1010A0000F930E94760A88EA91E00E94EF00F60111
:1010B00083E0EE0FFF1F8A95E1F7E55DFB4F878127
:1010C0001F928F9386811F928F9385811F928F939A
:1010D00084811F928F9383811F928F9382811F92AD
:1010E0008F9381811F928F9380811F928F93FF92A4
:1010F000EF920E94760A8DE090E00E94E800B3949F
:101100000FB6F894DEBF0FBECDBFCB2CD12C89819A
:1011100090E0C816D9060CF4BCCF88E00E94050404
:1011200088E00E948A0268E084E40E9462020F90D4
:10113000DF91CF911F910F91FF90EF90DF90CF90B3
:10114000BF9008957F928F929F92AF92BF92CF925D
:10115000DF92EF92FF920F931F93CF93DF93712C47
:1011600036EFE32E31E0F32E48E0C42E42E0D42ED9
:101170005CE1A52E52E0B52E60E2862E62E0962E4E
:1011800098C088E00E940504CE0123E0880F991FD3
:101190002A95E1F768E0855D9B4F0E94A80268E010
:1011A0008EEB0E94620288E00E9477028093220404
:1011B00088E00E947702809323048CED91E00E94E6
:1011C000EF00CE010E94FB008AEE91E00E94EF004A
:1011D0008DE090E00E94E800809122041F928F939E
:1011E000FF92EF920E94760A8DE090E00E94E80064
:1011F000809123041F928F93DF92CF920E94760AF0
:101200008DE090E00E94E8002DB73EB7285F3F4F89
:101210000FB6F8943EBF0FBE2DBF8091230487FD0B
:1012200005C08BE290E00E94EF0013C08AE192E0DB
:101230000E94EF001091230400E0809122049801A5
:10124000282BC9019195819591098093220490934F
:10125000230480912304877030E1839FC00111240F
:101260009091220492959F70982B1F929F93BF920A
:10127000AF920E94760A909122049F70892F880F66
:1012800028E0929F800D112482958F701F928F937A
:101290009F928F920E94760A8DE090E00E94E80073
:1012A00073948DB79EB708960FB6F8949EBF0FBE85
:1012B0008DBF80912B02C72DD0E090E0C817D907D1
:1012C0000CF45FCF88E00E94050488E00E948A0247
:1012D00068E084E4DF91CF911F910F91FF90EF9030
:1012E000DF90CF90BF90AF909F908F907F900C94A5
:1012F0006202CF93DF93EC0188E00E94050488E04E
:101300000E948A0268E08EEB0E94620288E00E94DE
:101310007702888388E00E947702898388E00E94B0
:10132000050488E00E948A0268E084E4DF91CF919E
:101330000C94620281E00E942B010E94A4012FEF15
:1013400083ED90E3215080409040E1F700C0000021
:1013500081E091E0909334048093330490933604B9
:101360008093350488E090E00E94840078948BE3B9
:1013700091E00E94EF008DE00E94E8008AE491E095
:101380000E948A0A0E94820180E00E942B010E9432
:10139000680788E00E94A3030E9415088091330427
:1013A000909134040E940A0A8F3F2FEF920731F088
:1013B00060913504709136040E944A0A0E94150714
:1013C0000E94B801EBCF991B79E004C0991F9617D2
:1013D00008F0961B881F7A95C9F780950895AA1B77
:1013E000BB1B51E107C0AA1FBB1FA617B70710F010
:1013F000A61BB70B881F991F5A95A9F78095909542
:10140000BC01CD010895FB01DC0101900D9200208B
:10141000E1F70895CF93DF93EC013B8130FF34C0B7
:1014200036FF0AC03F7B3B838E819F8101969F835D
:101430008E832A8130E02AC032FF0FC0E881F98113
:101440008081992787FD9095009719F430623B833E
:101450001BC03196F983E8830EC0EA85FB850995A8
:1014600097FF09C02B81019611F480E101C080E251
:10147000822B8B8309C02E813F812F5F3F4F3F839B
:101480002E839C01332702C02FEF3FEFC901DF916C
:10149000CF9108950F931F93CF93DF938C01EB01AE
:1014A0008B8181FD03C00FEF1FEF1AC082FF0DC0BB
:1014B0002E813F818C819D812817390764F4E88152
:1014C000F9810193F983E88306C0E885F985802FC7
:1014D0000995892B41F78E819F8101969F838E8389
:1014E000C801DF91CF911F910F910895A0E0B0E066
:1014F000ECE7FAE00C94490DFE013596619171918B
:10150000AF0180913504909136040E94E90AE2E02F
:101510000C94650D0F931F93CF93DF938C01E09193
:101520003504F0913604838181FF1BC0C0E0D0E018
:1015300005C00995892B11F0CFEFDFEFF8018191FC
:101540008F016091350470913604DB011896ED919E
:10155000FC9119978111EDCF8AE00995892B09F447
:1015600002C0CFEFDFEFCE01DF91CF911F910F913E
:101570000895AEE0B0E0EFEBFAE00C94470D0D8972
:101580001E898F89988D26E02C831A83098397FF03
:1015900002C080E090E801979E838D83CE014B9638
:1015A000AC01698D7A8DCE0101960E94E90A4D81C8
:1015B0005E8157FD0AC02F813885421753070CF40E
:1015C0009A01F801E20FF31F10822E96E4E00C94CA
:1015D000630DACE0B0E0EFEEFAE00C94390D7C0165
:1015E0006B018A01FC0117821682838181FFC6C1CB
:1015F00088248394912C8C0E9D1EF7019381F60113
:1016000093FD859193FF81916F01882309F4B2C105
:10161000853239F493FD859193FF81916F01853275
:1016200029F4B70190E00E944A0AE7CF512C312CEF
:1016300020E02032A8F48B3261F028F4803251F09F
:10164000833271F40BC08D3239F0803349F421605C
:1016500028C02260246025C0286023C0206121C0EA
:1016600027FD27C0382F30533A3078F426FF06C0C4
:10167000FAE05F9E300D1124532E13C08AE0389E8D
:10168000300D1124332E20620CC08E3221F426FD41
:1016900071C1206406C08C3611F4206802C08836FF
:1016A00041F4F60193FD859193FF81916F018111C2
:1016B000C0CF982F9554933018F09052933028F45F
:1016C0000C5F1F4FFFE3F9830DC0833631F0833782
:1016D00071F0833509F05EC023C0F80180818983F1
:1016E0000E5F1F4F44244394512C540115C0380100
:1016F000F2E06F0E711CF801A080B18026FF03C0DC
:10170000652D70E002C06FEF7FEFC5012C870E944E
:10171000D00C2C0183012C856FE7262E222218C0C5
:101720003801F2E06F0E711CF801A080B18026FF35
:1017300003C0652D70E002C06FEF7FEFC5012C87FD
:101740000E94C50C2C012C8550E8252E222A8301ED
:1017500023FC1CC006C0B70180E290E00E944A0A48
:101760003A94832D90E048165906A8F30FC0F5016E
:1017700027FC859127FE81915F01B70190E00E94CF
:101780004A0A31103A94F1E04F1A510841145104B9
:1017900071F7EDC0843611F0893641F5F80127FF65
:1017A00007C060817181828193810C5F1F4F08C0E7
:1017B00060817181882777FD8095982F0E5F1F4F7C
:1017C0004FE6B42EB22297FF09C090958095709590
:1017D00061957F4F8F4F9F4FF0E8BF2A2AE030E09E
:1017E000A4010E94DB0CA82EA81843C0853731F451
:1017F0003FEEB32EB2222AE030E024C099EFB92E9A
:10180000B2228F36B9F020F4883509F0B3C00DC08C
:10181000803721F0883709F0ADC002C020E1B22A3C
:10182000B4FE0BC084E0B82A08C024FF09C0E6E07B
:10183000BE2A06C028E030E005C020E130E002C04A
:1018400020E132E0F801B7FE07C06081718182813A
:1018500093810C5F1F4F06C06081718180E090E032
:101860000E5F1F4FA4010E94DB0CA82EA818FFE7F3
:10187000BF22B6FE0BC02B2D2E7FA51450F4B4FE54
:101880000AC0B2FC08C02B2D2E7E05C07A2C2B2D51
:1018900003C07A2C01C0752C24FF0DC0FE01EA0D97
:1018A000F11D8081803311F4297E09C022FF06C01A
:1018B0007394739404C0822F867809F0739423FD87
:1018C00014C020FF0FC05A2C731460F4530C571827
:1018D000732C08C0B70180E290E02C870E944A0A6E
:1018E00073942C857314B0F304C0731410F4371878
:1018F00001C0312C24FF12C0B70180E390E02C8797
:101900000E944A0A2C8522FF1EC021FF03C088E5E1
:1019100090E002C088E790E0B7010CC0822F867883
:1019200091F021FD02C080E201C08BE227FD8DE233
:10193000B70190E00E944A0A06C0B70180E390E038
:101940000E944A0A5A94A514C0F3AA94F401EA0D1D
:10195000F11DB701808190E00E944A0AA110F5CFE5
:1019600006C0B70180E290E00E944A0A3A94311022
:10197000F8CF43CEF7012681378102C02FEF3FEF2A
:10198000C9012C96E2E10C94550DFC0105906150C3
:1019900070400110D8F7809590958E0F9F1F089585
:1019A000FC016150704001900110D8F7809590952E
:1019B0008E0F9F1F0895FA01AA27283051F1203178
:1019C00081F1E8946F936E7F6E5F7F4F8F4F9F4FD3
:1019D000AF4FB1E03ED0B4E03CD0670F781F891F15
:1019E0009A1FA11D680F791F8A1F911DA11D6A0FE3
:1019F000711D811D911DA11D20D009F468943F9196
:101A00002AE0269F11243019305D3193DEF6CF0194
:101A10000895462F4770405D4193B3E00FD0C9F75A
:101A2000F6CF462F4F70405D4A3318F0495D31FDC7
:101A30004052419302D0A9F7EACFB4E0A69597951A
:101A4000879577956795BA95C9F7009761057105F0
:101A500008959B01AC010A2E06945795479537953A
:101A60002795BA95C9F7620F731F841F951FA01D94
:101A700008952F923F924F925F926F927F928F9232
:101A80009F92AF92BF92CF92DF92EF92FF920F930D
:101A90001F93CF93DF93CDB7DEB7CA1BDB0B0FB617
:101AA000F894DEBF0FBECDBF09942A8839884888D4
:101AB0005F846E847D848C849B84AA84B984C8846A
:101AC000DF80EE80FD800C811B81AA81B981CE0F61
:101AD000D11D0FB6F894DEBF0FBECDBFED01089546
:041AE000F894FFCFA8
:101AE40002000000030000000053006A000000E749
:101AF400E7E7E7E7E7E7E7E7E701FF00E7E7E7E727
:101B0400E7E7E7E7E7E7202000000000EFF0EEF862
:101B1400EBEE20257520F1E5EA2E00CFF0EEE2E5AC
:101B2400F0EAE020F1E2FFE7E80048656C6C6F2022
:101B3400776F726C640D0A006572726F722E2E2EAE
:101B440000C2C5D0CDCE0053544154494F4E20530A
:101B5400544152540A0D0054657374206D657373B7
:101B64006167652E00CDE0E9E4E5EDEE2025752002
:101B7400F3F1F2F0EEE9F1F2E200C4E0F2F7E8EAA0
:101B840020B920002575200020524F4D20434F449A
:101B9400453A2000252E325820252E325820252E55
:101BA400325820252E325820252E325820252E3208
:101BB4005820252E325820252E325800F1F7E8F20D
:101BC400E0EBE820E8EDF4F320002DE3EE20E4E080
:101BD400F2F7E8EAE0007363726174636870616449
:101BE4005B305D3A202558007363726174636870DA
:101BF40061645B315D3A202558002D002025750075
:041C04002E25750014
:00000001FF
